:0300000002246374
:0C246300787FE4F6D8FD7581210224AAE0
:10261200256700010204081020408000000000002D
:102622000000000000000000000000010204081089
:1026320020408004C444444FC40404E4242F2424CE
:10264200E40400003F1212123F80403F0909498909
:0F2652007F00004552524F52004552524F5200E6
:1026920050002BEEDEBE7EEDDDBD7DEBDBBB7BE7CE
:1026A200D7B77741003B004100260041002AFF4195
:0F26B2000027FF410025014100280041002900B9
:04274C007F0A7E0082
:0B275000EF1FAC0670011E4C70F6225B
:1023C300E0FE90262593F4FFEE902615939000CF20
:1023D300F4FDE090264593FBEE902635939000D3D1
:0123E300F009
:1023E400D2A1D2A0E4FEEFC4131313540124FF922C
:1023F400A2EF25E0FFC2A10000D2A10EEEB408E6D0
:10240400E4FEEDC4131313540124FF92A2ED25E05E
:10241400FDC2A10000D2A10EEEB408E6E4FEEBC4B6
:10242400131313540124FF92A2EB25E0FBC2A10075
:1024340000D2A10EEEB408E6E4FE9000D3E0FFC49F
:10244400131313540124FF92A2EF25E0F0C2A1005C
:0E24540000D2A10EEEB408E2C2A00000D2A099
:012462002257
:1025C0009000C974C8F09000C9E0FF14F0EFD394F4
:1025D00000402CE49000C8F09000C8E0C394105074
:1025E000E5E0FE90262593F4FFEE902615939000EB
:1025F000C81223D312274C9000C8E004F080D912EF
:1026000026E990002AE0900027F0121C3712000300
:0226100080F058
:10000300900025E014B407004003020FF890001E8F
:1000130075F003A4C58325F0C58373020033020082
:10002300770201840203EF02065F0208CF020BC6C8
:10003300900029E0B4010812276AE4900029F090A7
:10004300002AE0FFC39430401CEFD394395016903C
:10005300003BE0FEC3940A500C9000257402F07438
:10006300002E020BF790002AE0FB64286003020FC6
:10007300F5020DED90002AE0FFC39430400FEFD35B
:100083009439500990003BE0C3940A400790002A3A
:10009300E0B42E149000257402F090002AE0FF9043
:1000A300003BE02400020BF790002AE0FF642B6082
:1000B30005EF642D70079000257403801C90002ABF
:1000C300E0642A70079000257404800D90002AE0F4
:1000D300642F70259000257405F07B017A00790068
:1000E30090003BE0FD7C00E49000CFF0A3F0121EF3
:1000F30067E490003BF0020C7190002AE0643D70CD
:100103002690002504F0FB7A00790090003BE0FD87
:100113007C00E49000CFF0A3F0121E67E490003B54
:10012300F0122503020DD790002AE06453704F7B31
:10013300017A00790090003BE0FD7C00E49000CF61
:10014300F0A3F0121E67900028E075F00CA4243C85
:10015300F582E43400F583E0FCA3E0FDA3E0FEA315
:10016300E0FF12231B900028E075F00CA4243CF55B
:1001730082E434001224FE9000257402F022020F60
:10018300F590002AE0FFC39430400FEFD394395029
:100193000990003BE0C3940A400790002AE0B42E84
:1001A300149000257403F090002AE0FF90003BE0D8
:1001B3002400020BF790002AE0FF642B6005EF6434
:1001C3002D7042900027E0FF642B7003020FF8EFBD
:1001D300642D7003020FF8EF642A7003020FF8EF27
:1001E300642F7003020FF8EF643D7003020FF8EF02
:1001F300642E7003020FF89000257403121E51122F
:10020300200B020C7190002AE0642A703B900027B7
:10021300E0FF642B7003020FF8EF642D7003020FED
:10022300F8EF642A7003020FF8EF642F7003020FD4
:10023300F8EF643D7003020FF8EF642E7003020FB2
:10024300F89000257406804190002AE0642F7044E2
:10025300900027E0FF642B7003020FF8EF642D700A
:1002630003020FF8EF642A7003020FF8EF642F7094
:1002730003020FF8EF643D7003020FF8EF642E7072
:1002830003020FF89000257407121E51E490003BFF
:10029300F0020CE490002AE0643D704C900027E0EB
:1002A300FF642B7003020FF8EF642D7003020FF845
:1002B300EF642A7003020FF8EF642F7003020FF844
:1002C300EF643D7003020FF8EF642E7003020FF822
:1002D3009000257401F0FB121E54E490003BF012D1
:1002E3002503122010020DD790002AE0FB6428702A
:1002F30003020DED90002AE0642960030203B812A3
:100303001E4012200B900025E0FF64036009EF6498
:10031300046004EFB4052B900028E0FB75F00CA4F7
:10032300243CF582E43400F583E0FCA3E0FDA3E084
:10033300FEA3E0FFEB75F00CA42434F582E4340053
:10034300806B900025E0FF64066004EFB4072B90F8
:100353000028E0FB75F00CA4243CF582E43400F59E
:1003630083E0FCA3E0FDA3E0FEA3E0FFEB75F00C4C
:10037300A42438F582E434008033900025E0B401EE
:10038300317402F0900028E0FB75F00CA4243CF5D6
:1003930082E43400F583E0FCA3E0FDA3E0FEA3E0E8
:1003A300FFEB75F00CA42430F582E43400F58312DE
:1003B30016DC020F8E90002AE06453702C121E523A
:1003C300900028E075F00CA42440F582E43400F595
:1003D30083E0FCA3E0FDA3E0FEA3E0FF12231B12D6
:1003E30024EF9000257403F022020FF590002AE019
:1003F300FFC39430400FEFD39439500990003BE092
:10040300C3940A400790002AE0B42E149000257488
:1004130004F090002AE0FF90003BE02400020BF779
:1004230090002AE0FF642B6005EF642D704290007A
:1004330027E0FF642B7003020FF8EF642D700302B3
:100443000FF8EF642A7003020FF8EF642F700302B2
:100453000FF8EF643D7003020FF8EF642E70030290
:100463000FF89000257403121E5112200B020C7119
:1004730090002AE0642A7042900027E0FF642B700A
:1004830003020FF8EF642D7003020FF8EF642A7074
:1004930003020FF8EF642F7003020FF8EF643D704F
:1004A30003020FF8EF642E7003020FF89000257417
:1004B30004121E5112200B020C7190002AE0642FCB
:1004C3007042900027E0FF642B7003020FF8EF6483
:1004D3002D7003020FF8EF642A7003020FF8EF6424
:1004E3002F7003020FF8EF643D7003020FF8EF64FF
:1004F3002E7003020FF89000257405121E5112206E
:100503000B020C7190002AE0643D704C900027E0D0
:10051300FF642B7003020FF8EF642D7003020FF8D2
:10052300EF642A7003020FF8EF642F7003020FF8D1
:10053300EF643D7003020FF8EF642E7003020FF8AF
:100543009000257401F0FB121E54E490003BF0125E
:100553002503122010020DD790002AE0FB642870B7
:1005630003020DED90002AE06429600302062812BD
:100573001E4012200B900025E0FF64036009EF6426
:10058300046004EFB4052B900028E0FB75F00CA485
:10059300243CF582E43400F583E0FCA3E0FDA3E012
:1005A300FEA3E0FFEB75F00CA42434F582E43400E1
:1005B300806B900025E0FF64066004EFB4072B9086
:1005C3000028E0FB75F00CA4243CF582E43400F52C
:1005D30083E0FCA3E0FDA3E0FEA3E0FFEB75F00CDA
:1005E300A42438F582E434008033900025E0B4017C
:1005F300317402F0900028E0FB75F00CA4243CF564
:1006030082E43400F583E0FCA3E0FDA3E0FEA3E075
:10061300FFEB75F00CA42430F582E43400F583126B
:1006230016DC020F8E90002AE06453702C121E52C7
:10063300900028E075F00CA42440F582E43400F522
:1006430083E0FCA3E0FDA3E0FEA3E0FF12231B1263
:1006530024EF9000257404F022020FF590002AE0A5
:10066300FFC39430400FEFD39439500990003BE01F
:10067300C3940A400790002AE0B42E149000257416
:1006830005F090002AE0FF90003BE02400020BF706
:1006930090002AE0FF642B6005EF642D7042900008
:1006A30027E0FF642B7003020FF8EF642D70030241
:1006B3000FF8EF642A7003020FF8EF642F70030240
:1006C3000FF8EF643D7003020FF8EF642E7003021E
:1006D3000FF89000257403121E5112200B020C71A7
:1006E30090002AE0642A7042900027E0FF642B7098
:1006F30003020FF8EF642D7003020FF8EF642A7002
:1007030003020FF8EF642F7003020FF8EF643D70DC
:1007130003020FF8EF642E7003020FF890002574A4
:1007230004121E5112200B020C7190002AE0642F58
:100733007042900027E0FF642B7003020FF8EF6410
:100743002D7003020FF8EF642A7003020FF8EF64B1
:100753002F7003020FF8EF643D7003020FF8EF648C
:100763002E7003020FF89000257405121E511220FB
:100773000B020C7190002AE0643D704C900027E05E
:10078300FF642B7003020FF8EF642D7003020FF860
:10079300EF642A7003020FF8EF642F7003020FF85F
:1007A300EF643D7003020FF8EF642E7003020FF83D
:1007B3009000257401F0FB121E54E490003BF012EC
:1007C3002503122010020DD790002AE0FB64287045
:1007D30003020DED90002AE06429600302089812D9
:1007E3001E4012200B900025E0FF64036009EF64B4
:1007F300046004EFB4052B900028E0FB75F00CA413
:10080300243CF582E43400F583E0FCA3E0FDA3E09F
:10081300FEA3E0FFEB75F00CA42434F582E434006E
:10082300806B900025E0FF64066004EFB4072B9013
:100833000028E0FB75F00CA4243CF582E43400F5B9
:1008430083E0FCA3E0FDA3E0FEA3E0FFEB75F00C67
:10085300A42438F582E434008033900025E0B40109
:10086300317402F0900028E0FB75F00CA4243CF5F1
:1008730082E43400F583E0FCA3E0FDA3E0FEA3E003
:10088300FFEB75F00CA42430F582E43400F58312F9
:1008930016DC020F8E90002AE06453702C121E5255
:1008A300900028E075F00CA42440F582E43400F5B0
:1008B30083E0FCA3E0FDA3E0FEA3E0FF12231B12F1
:1008C30024EF9000257405F022020FF590002AE032
:1008D300FFC39430400FEFD39439500990003BE0AD
:1008E300C3940A400790002AE0B42E1490002574A4
:1008F30006F090002AE0FF90003BE02400020BF793
:1009030090002AE0FF642B6005EF642D705C90007B
:1009130027E0FF642B7003020FF8EF642D700302CE
:100923000FF8EF642A7003020FF8EF642F700302CD
:100933000FF8EF643D7003020FF8EF642E700302AB
:100943000FF89000257403F07B017A007900900082
:100953003BE0FD7C009000CFE4F0A37402F0121E94
:1009630067122191122010020C7190002AE0642A70
:100973007059900027E0FF642B7003020FF8EF64B7
:100983002D7003020FF8EF642A7003020FF8EF646F
:100993002F7003020FF8EF643D7003020FF8EF644A
:1009A3002E7003020FF89000257406F07B017A0085
:1009B300790090003BE0FD7C009000CFE4F0A3744D
:1009C30002F0121E67122191020CE490002AE064E7
:1009D3002F7059900027E0FF642B7003020FF8EF8C
:1009E300642D7003020FF8EF642A7003020FF8EF0F
:1009F300642F7003020FF8EF643D7003020FF8EFEA
:100A0300642E7003020FF89000257407F07B017ABF
:100A130000790090003BE0FD7C009000CFE4F0A360
:100A23007402F0121E67122191020CE490002AE076
:100A3300643D7063900027E0FF642B7003020FF89E
:100A4300EF642D7003020FF8EF642A7003020FF8AE
:100A5300EF642F7003020FF8EF643D7003020FF889
:100A6300EF642E7003020FF89000257401F0FB7AF7
:100A730000790090003BE0FD7C009000CFE4F0A300
:100A83007402F0121E67E490003BF012250312215A
:100A930096122010020DD790002AE0FB6428700301
:100AA300020DED90002AE064296003020B6A121E16
:100AB30040122191122010900025E0FF6403600989
:100AC300EF64046004EFB4052B900028E0FB75F09D
:100AD3000CA4243CF582E43400F583E0FCA3E0FDA0
:100AE300A3E0FEA3E0FFEB75F00CA42434F582E44D
:100AF3003400806B900025E0FF64066004EFB407C8
:100B03002B900028E0FB75F00CA4243CF582E43420
:100B130000F583E0FCA3E0FDA3E0FEA3E0FFEB759B
:100B2300F00CA42438F582E434008033900025E0EF
:100B3300B401317402F0900028E0FB75F00CA4249A
:100B43003CF582E43400F583E0FCA3E0FDA3E0FE82
:100B5300A3E0FFEB75F00CA42430F582E43400F538
:100B6300831216DC020F8E90002AE0645370517BCF
:100B7300017A00790090003BE0FD7C009000CFE417
:100B8300F0A37402F0121E67900028E075F00CA425
:100B93002444F582E43400F583E0FCA3E0FDA3E004
:100BA300FEA3E0FF12231B900028E075F00CA424A1
:100BB30044F582E434001224FE9000257406F022EA
:100BC300020FF590002AE0FFC39430400FEFD39457
:100BD30039500990003BE0C3940A400790002AE093
:100BE300B42E249000257407F090002AE0FF9000B3
:100BF3003BE02400F582E43400F583EFF01225088E
:100C030090003BE004F02290002AE0FF642B600593
:100C1300EF642D706E900027E0FF642B7003020FCA
:100C2300F8EF642D7003020FF8EF642A7003020FCC
:100C3300F8EF642F7003020FF8EF643D7003020FA7
:100C4300F8EF642E7003020FF89000257403F07B15
:100C5300017A00790090003BE0FD7C009000CFE436
:100C6300F0A37402F0121E6712219112201090005B
:100C73002AE0FF900028E025E024B4F582E4340064
:100C8300020D6890002AE0642A706A900027E0FF52
:100C9300642B7003020FF8EF642D7003020FF8EF5B
:100CA300642A7003020FF8EF642F7003020FF8EF4A
:100CB300643D7003020FF8EF642E7003020FF89087
:100CC30000257406F07B017A00790090003BE0FD7B
:100CD3007C009000CFE4F0A37402F0121E6712218F
:100CE3009190002AE0FF900028E025E024B5F582EA
:100CF300E43400807090002AE0642F706F90002726
:100D0300E0FF642B7003020FF8EF642D7003020FF2
:100D1300F8EF642A7003020FF8EF642F7003020FD9
:100D2300F8EF643D7003020FF8EF642E7003020FB7
:100D3300F89000257407F07B017A00790090003B5E
:100D4300E0FD7C009000CFE4F0A37402F0121E6774
:100D530012219190002AE0FF900028E025E024B5BD
:100D6300F582E43400F583EFF0020F9990002AE056
:100D7300643D706A900027E0FF642B7003020FF854
:100D8300EF642D7003020FF8EF642A7003020FF86B
:100D9300EF642F7003020FF8EF643D7003020FF846
:100DA300EF642E7003020FF89000257401F0FB7AB4
:100DB30000790090003BE0FD7C009000CFE4F0A3BD
:100DC3007402F0121E67E490003BF0122503122117
:100DD300961220101225679000297401F0229000CA
:100DE3002AE0FB64286003020ECD900025E0FF900B
:100DF3000028E0FE241BF582E43400F583EFF0EED7
:100E030025E024B4F582E43400F583E0FFEE25E029
:100E130024B6F582E43400F583EFF0EE25E024B543
:100E2300F582E43400F583E0FFEE25E024B7F58294
:100E3300E43400F583EFF0EE75F00CA4243CF58266
:100E4300E43400F583E0FCA3E0FDA3E0FEA3E0FFB0
:100E5300900028E0FA75F00CA42448F582E43400ED
:100E6300F5831216DCEA75F00CA42440F582E43411
:100E730000F583E0FCA3E0FDA3E0FEA3E0FFEA7539
:100E8300F00CA4244CF582E43400F5831216DCEA5A
:100E930075F00CA42444F582E43400F583E0FCA34C
:100EA300E0FDA3E0FEA3E0FFEA75F00CA42450F5F7
:100EB30082E43400F5831216DC900028E004F090FD
:100EC30000257401F0AF03020F9990002AE0642912
:100ED3006003020F9C121E401221911220109000F9
:100EE30025E0FF64036009EF64046004EFB4052B9D
:100EF300900028E0FB75F00CA4243CF582E4340058
:100F0300F583E0FCA3E0FDA3E0FEA3E0FFEB75F0B7
:100F13000CA42434F582E43400806B900025E0FFB8
:100F230064066004EFB4072B900028E0FB75F00C17
:100F3300A4243CF582E43400F583E0FCA3E0FDA3A4
:100F4300E0FEA3E0FFEB75F00CA42438F582E43453
:100F5300008033900025E0B401317402F090002842
:100F6300E0FB75F00CA4243CF582E43400F583E047
:100F7300FCA3E0FDA3E0FEA3E0FFEB75F00CA424CB
:100F830030F582E43400F5831216DC900028E01477
:100F9300F090002AE0FF02250890002AE0645370D5
:100FA300517B017A00790090003BE0FD7C009000CA
:100FB300CFE4F0A37402F0121E67900028E075F0EE
:100FC3000CA42444F582E43400F583E0FCA3E0FDA3
:100FD300A3E0FEA3E0FF12231B900028E075F00CB2
:100FE300A42444F582E434001224FE9000257407FF
:060FF300F02212270F227C
:101C37009000CBE4F0A304F0A3E4F0A304F0900039
:101C4700CBA3E09000CAF075B0FF20901012275B7D
:101C570020900A3090FD90002A7428F022209110DD
:101C670012275B20910A3091FD90002A7429F022F7
:101C770020921012275B20920A3092FD90002A745E
:101C870053F02220933A12275B20933420931CE4CD
:101C97009000CFF09000CFE0C3941050EF1223C311
:101CA70012274C9000CFE004F080E912276A9000D9
:101CB700257401F0E490003BF090002A742BF02289
:101CC70020972C12275B20972620971CE49000CFA3
:101CD700F09000CFE0C3941050EF1223C312274CAB
:101CE7009000CFE004F080E990002A744DF022754F
:101CF700B00FE5B0640F7003021C4E12275B900013
:101D0700CAE5B0F075B0F0E5B064F07003021C4EA0
:101D1700E045B090002AF0E49000CBF0A3F09000EB
:101D2700CBE0FEA3E0FFC39410EE648094804003F1
:101D3700021E3A742B2FF58274003EF583E0FF9064
:101D4700002AE06F6003021E299000CCE02401FF07
:101D57009000CBE03400FE6003021E29EF14B4109C
:101D6700004003021E29901D7B75F003A4C583253F
:101D7700F0C58373021DAB021DB3021DBB021DC359
:101D8700021DCB021DD3021DDB021DE3021DEB0268
:101D97001DF3021DFB021E03021E0B021E13021E71
:101DA7001B021E2390002A7437F0807690002A7455
:101DB70038F0806E90002A7439F0806690002A749B
:101DC7002BF0805E90002A7434F0805690002A74BD
:101DD70035F0804E90002A7436F0804690002A74C1
:101DE7002DF0803E90002A7431F0803690002A74DE
:101DF70032F0802E90002A7433F0802690002A74E7
:101E07002AF0801E90002A7430F0801690002A7401
:101E17002EF0800E90002A743DF0800690002A7400
:101E27002FF09000CCE004F070069000CBE004F0B7
:081E3700021D25E5B0B4F0FB2B
:011E3F002280
:101E4000900028E0241AF582E43400F583E0900045
:101E500025F07B017A00790090003BE0FD7C00904A
:071E600000CFE4F0A304F041
:101E67009000CAEBF0A3EAF0A3E9F0A3ECF0A3ED2E
:101E7700F0900027E0FF6429700302200AEF645303
:051E8700700302200AB7
:101E8C009000D11216E8000000009000D51216E860
:101E9C0000000000E49000D9F0F09000D9E0FFD3EE
:101EAC009000CEE09F7480F89000CDE06480985054
:101EBC0003021FAC9000CAE0FBA3E0FAA3E0F99088
:101ECC0000D9E0F58275830012164D642E70759062
:101EDC0000D9E004F0805D9000D9E0FFC39000CE03
:101EEC00E09F7480F89000CDE06480985003021F4E
:101EFC00AC9000CAE0FBA3E0FAA3E0F9A3E0FEA3D8
:101F0C00E0F5828E8312164D24D0FDE434FFFCE400
:101F1C001213099000D5E0F8A3E0F9A3E0FAA3E0CE
:101F2C00FB121000E4FBFA792078411211FA9000B0
:101F3C00D51216DC9000CEE024FFF09000CDE034FA
:101F4C00FFF080939000CAE0FBA3E0FAA3E0F990C5
:101F5C0000D9E0F58275830012164D24D0FDE434CF
:101F6C00FFFCE4121309C004C005C006C007E4FF5F
:101F7C00FE7D207C419000D1E0F8A3E0F9A3E0FACB
:101F8C00A3E0FB1210F1D003D002D001D00012104C
:101F9C00009000D11216DC9000D9E004F0021EA6CD
:101FAC009000D5E0FCA3E0FDA3E0FEA3E0FF9000D1
:101FBC00D1E0F8A3E0F9A3E0FAA3E0FB121000C013
:101FCC0004C005C006C0079000CFE0FEA3E0780275
:101FDC00C333CE33CED8F9FF900028E075F00CA4B3
:101FEC00243CF582E43400F583E5822FF582E58309
:0E1FFC003EF583D007D006D005D0041216DCC7
:01200A0022B3
:09272300E0F580D2A6C2A5D2A700
:0E272C007FB87E0BEF1FAC0670011E4C70F6DE
:01273A00227C
:0E275B007F407E1FEF1FAC0670011E4C70F613
:01276900224D
:10273B008F80C2A6C2A512272CD2A712272CC2A704
:01274B00226B
:1024EF00900028E075F00CA42440F582E43400F548
:0924FF00831216DC90002AE0FFB4
:102508009000DFEFF0900026E004F0E0FDB4110C3D
:102518007F0212273B7FC012273B8010EDB4210CAD
:1025280012276A1226619000267411F0E580B41112
:10253800057FC012273B9000DF122723C2A7E0FBCC
:10254800900026E024FFFFE434FFFE7C007D10129B
:0F255800168C740A2DF58274003CF583EBF0228B
:10266100E4FBFAE580B411057FC012273B740A2B05
:10267100F58274003AF583122723C2A70BBB000130
:102681000AEB64104A70DC7F0212273B7FC00227ED
:012691003B0D
:1026E900E4900026F0C2A77F3812273B7F0D1227FE
:1026F9003B7F0612273B7F0112273B7F8002273B46
:0C276A00E4900026F0C2A77F0102273B8C
:05200B00E490003BF031
:1020100078D67C007D017BFF7A2679557E007F068D
:1020200012160EE49000DCF0A3F0900028E0FB759F
:10203000F00CA4243CF582E43400F583E0FCA3E03A
:10204000FDA3E0FEA3E0FF9000CA1216DCEB75F0E2
:102050000CA42440F582E43400F583E0FCA3E0FD09
:10206000A3E0FEA3E0FF9000CE1216DC900028E073
:1020700025E024B4F582E43400F583E024D66052F0
:1020800024FD602D24FE606B2404600302216F9008
:1020900000CEE0FCA3E0FDA3E0FEA3E0FF9000CAB9
:1020A000E0F8A3E0F9A3E0FAA3E0FB12100002219C
:1020B000389000CEE0F8A3E0F9A3E0FAA3E0FB90AB
:1020C00000CAE0FCA3E0FDA3E0FEA3E0FF120FFCCA
:1020D00080669000CEE0FCA3E0FDA3E0FEA3E0FF5D
:1020E0009000CAE0F8A3E0F9A3E0FAA3E0FB121025
:1020F000F18045900028E075F00CA42440F582E4BE
:102100003400F583E0FCA3E0FDA3E0FEA3E0FFE4E0
:10211000FBFAF9F812129760279000CEE0F8A3E0DE
:10212000F9A3E0FAA3E0FB9000CAE0FCA3E0FDA362
:10213000E0FEA3E0FF1211FA9000D21216DC802F0D
:1021400012276A9000DCE0FEA3E024D6F58274003A
:102150003EF583E0FF700280131225089000DDE059
:1021600004F070DF9000DCE004F080D712270990C3
:1021700000D2E0FCA3E0FDA3E0FEA3E0FF90002876
:10218000E075F00CA4243CF582E43400F5830216DB
:01219000DC72
:05219100E490003BF0AA
:1021960078D67C007D017BFF7A26795B7E007F0600
:1021A60012160EE49000DCF0A3F0900028E0FB7518
:1021B600F00CA42440F582E43400F583E0FCA3E0AF
:1021C600FDA3E0FEA3E0FF9000CA1216DCEB75F05B
:1021D6000CA42444F582E43400F583E0FCA3E0FD7E
:1021E600A3E0FEA3E0FF9000CE1216DC900028E0EC
:1021F60025E024B5F582E43400F583E024D6605268
:1022060024FD602D24FE606B240460030222F590F9
:1022160000CEE0FCA3E0FDA3E0FEA3E0FF9000CA31
:10222600E0F8A3E0F9A3E0FAA3E0FB121000022213
:10223600BE9000CEE0F8A3E0F9A3E0FAA3E0FB909D
:1022460000CAE0FCA3E0FDA3E0FEA3E0FF120FFC42
:1022560080669000CEE0FCA3E0FDA3E0FEA3E0FFD5
:102266009000CAE0F8A3E0F9A3E0FAA3E0FB12109D
:10227600F18045900028E075F00CA42444F582E432
:102286003400F583E0FCA3E0FDA3E0FEA3E0FFE459
:10229600FBFAF9F812129760279000CEE0F8A3E057
:1022A600F9A3E0FAA3E0FB9000CAE0FCA3E0FDA3DB
:1022B600E0FEA3E0FF1211FA9000D21216DC802F86
:1022C60012276A9000DCE0FEA3E024D6F5827400B3
:1022D6003EF583E0FF700280131225089000DDE0D2
:1022E60004F070DF9000DCE004F080D7122709903C
:1022F60000D2E0FCA3E0FDA3E0FEA3E0FF900028EF
:10230600E075F00CA42440F582E43400F58302164F
:01231600DCEA
:10256700900028E075F00CA4243CF582E43400F5D3
:1025770083E0FCA3E0FDA3E0FEA3E0FF9000E2748C
:10258700FFF0A37426F0A37412F0A31216DC7B01EC
:102597007A0079CA121819E49000DEF09000DEE0A4
:1025A70024CAF582E43400F583E0FF700122122586
:0925B700089000DEE004F080E36E
:062709009000257401F0B0
:10270F00E4FFB2A4E4FE000EEEB4FAFA0FEFB464E5
:03271F00F1D2A450
:012722002294
:100FF900021377E86480F8E933E83360110460F09C
:10100900ED33EC337009E8FCE9FDEAFEEBFF22045D
:1010190060DED3EB9FEA9EE99DE8C2E78CF0C2F758
:1010290095F0400CE8CCF8E9CDF9EACEFAEBCFFB24
:1010390012134285D0F05804700320D5B3E8047028
:10104900075002B2D502138192D5EC0460F7E4CCC3
:10105900C0E0C398F8603B94186008400DD0E0FBED
:10106900021359E4FBFAC9FC8028E830E406E4C914
:10107900FBE4CAFCE830E305E4C9CACBFCE8540741
:101089006010F8C3E913F9EA13FAEB13FBEC13FC4C
:10109900D8F130F52FC3E49CFCEF9BFFEE9AFEEDEF
:1010A90099FDD0E0FBEF4E4D4C701222DB03021389
:1010B9007EEC2CFCEF33FFEE33FEED33FDED30E734
:1010C900EB021359EF2BFFEE3AFEED39FDD0E0FBB1
:1010D90050130BBB0003021381ED13FDEE13FEEF5A
:0810E90013FFEC13FC02135984
:1010F100EC4D6011E8497017ED33EC3304600DE4F9
:10110100FCFFFEFD22E933E8330470F80213771285
:10111100134258046009E4CC248150062850090286
:10112100138128400302137EC0E0EB4A7044B9806A
:1011310006D0E0FB02136DEF4E701CBD8008EBFF83
:10114100EAFEE9FD80EBE98DF0A4FEE5F00211DA9B
:10115100E9CDF9EAFEEBFFEF89F0A4FCE5F0CE89D9
:10116100F0A42EFFE435F0CD89F0A42DFEE435F096
:101171008067EF4E7005BD80D780C3EF8BF0A4ACC4
:10118100F0EE8BF0A42CFCE435F0F8EF8AF0A42CFF
:10119100E5F038FCE433CB8DF0A42CFCE5F03BF812
:1011A100EE8AF0A42CFCE5F038F8E433CF89F0A402
:1011B1002CFCE5F038CF3400CE89F0A42FFFE5F008
:1011C1003EFEE433C98DF0A42EFEE5F039CD8AF060
:1011D100A42FFFE5F03EFEE43DFD33D0E0FB5007D8
:1011E1000BBB000F021381EC2CFCEF33FFEE33FE3F
:0611F100ED33FD0213596D
:1011F700021381EC5D046005E8590470030213775C
:10120700121342580460F6EC4860F2EC7004FDFEDD
:10121700FF22C860DB2481C85009C39860025006CA
:1012270002137E9850CAF582E9294B4A7005AB82B2
:1012370002136D75F0007C1A7880C3EF9BEE9AED70
:1012470099400DC3EF9BFFEE9AFEED99FDE842F042
:10125700DC23ACF0D0E0FFD0E0FED0E0FDAB822095
:10126700E7101BEB60BAEC2CFCEF33FFEE33FEED1F
:1012770033FD021359E803F830E705C0F075F000B5
:10128700EF2FFFEE33FEED33FD40B830E7C280AA03
:1012970074F8CC6480CCC86480C8F582046043C30A
:1012A700EB9FF5F0EA9E42F0E99D42F0E89C45F09D
:1012B70060305018E5825FFFE582F42B5582FB50C2
:1012C700210ABA001D09B90019088016E5825BFBDF
:1012D700E582F42F5582FF50090EBE00050DBD00B3
:1012E700010CC3EB9FF5F0EA9E42F0E99D42F0E85E
:0D12F7009C45F06007CC4820E701B3EC22D5
:1013040075F020800E75F010800575F0087D007E64
:10131400007F003392D530D5031216C2EC3340104F
:10132400EF33FFEE33FEED33FDEC33FCD5F0ED226D
:0E133400E5F0247EA2D513CC92E7CDCEFF22A9
:1017B400E50824E2F582E43400F583E0050822908C
:1017C40000DF3007039000E2E475F00112171902FC
:1017D40016342000E97F2ED2008018EF540F249095
:1017E400D43440D4FF30040BEF24BFB41A005003A8
:1017F4002461FFE50960021509050CE50C7002057A
:101804000B30070E9000DFE475F001121719EF0298
:10181400167A0226C27403D2078003E4C207F508CD
:101824009000DF121730E4F509F50BF50CE50960BB
:10183400077F201217F780F5750AFFC201C200C2A4
:1018440002C203C205C206C2081217C3FF700D30DC
:1018540007057F00121808AF0CAE0B22B4255FC237
:10186400D5C2041217C3FF24D0B40A00501A75F06D
:101874000A780930D50508B6FF0106C6A426F62065
:10188400D5047002D20380D924CFB41A00EF5004D7
:10189400C2E5D204021AFAD20180C6D20080C0D2B4
:1018A4000280BCD2D580BAD20580B47F201217F74B
:1018B4002002077401B5090040F11217B4FF121792
:1018C400F7021831D208D20680951217B4FB12170A
:1018D400B4FA1217B4F94A4B700679F87A1B7BFFF5
:1018E40020022EE509602A7E008E8275830012167E
:1018F4004D60060EEE650A70F0C2D5EBC0E0EAC09A
:10190400E0E9C0E0EE121B5BD0E0F9D0E0FAD0E0F1
:10191400FB121634FF60AAEBC0E0EAC0E0E9C0E0C5
:101924001217F7D0E02401F9D0E03400FAD0E0FB3C
:10193400E50A0460DCD50AD98087D20280A2121B92
:101944003D60F7E50A70010412138CA90A600DE5E5
:101954000A600914F50A121BE5EF60F3EA30E702A6
:10196400F404C3995079EAF4250A0430E701E40445
:10197400F50A800D121B3D60C1EA050A250A1213FF
:101984008CEA90010EF030E701E4250A04D50A043C
:1019940020050114121B5BE4C0E0121BE590010E4C
:1019A400E0601320E70714F01217DF802204F0D060
:1019B400E014C0E07F001217DFE50A60071217D6B3
:1019C400150A800B3005031217D6D0E0021831D067
:1019D400E00480C4121B3D609EE50A0412138C903F
:1019E400010EEAF0E50A2005026001042404121B3A
:0119F4005B97
:1019F50074FF04C0E0121BE51217DFE50A2005029B
:101A050060031217D6D0E0B50AE87F451217E990B2
:101A1500010EE07F2B30E7047F2DF404C0E01217A0
:101A2500F7D0E075F00A84C0F01217E0D0E0121785
:101A3500E0021831791080027908C206C2088008D0
:101A4500D2D5790A8004790AC2D5E50A047002F56F
:101A55000AE4FAFDFEFF1217B4FC7B0820011312FD
:101A650017B4FD7B1030000A1217B4FE1217B4FF2D
:101A75007B20EC3382D592D55013C3E43000069F0A
:101A8500FFE49EFEE42001039DFDE49CFCE4CBF80D
:101A9500C201EC700CCFCECDCCE824F8F870F38001
:101AA50017C3EF33FFEE33FEED33FDEC33FCEB33C1
:101AB500FB994002FB0FD8E9EB300105F8D0E0C4F3
:101AC50048B201C0E00AEC4D4E4F78207B0070C251
:101AD500EAB50A0040BCC0E0121B5DD0F0D0E020A2
:101AE5000104C4C0E0C4B201C0F01217E0D0F0D5C3
:101AF500F0EB02183112173918CE531A3958189FBE
:101B05004C189B421A3D4F1A45441A454918B4438F
:101B15001A4B5519784619D8451942471C185018BB
:101B2500A32D18A72E18CA2B18AB2318C8201C01E3
:101B35002A186348000018C2E50AB4FF03750A06AF
:101B45001217B4FC1217B4FD1217B4FE1217B4FF26
:101B55009001070213C9790AA2D52003143005099B
:101B6500B910020404B9080104A2D52006025001E7
:101B7500042002689202B509005034C0E07F20308D
:101B850003197F30A20272067205500F121BB4C2F0
:101B950002C206C205C2087F30800F300503E9C0C6
:101BA500E01217F7300503D0E0F9D0E0B509CC30E5
:101BB50005177F30B9100C1217F77F583004077FCF
:101BC500788003B908031217F73002057F2D021735
:101BD500F77F202008F87F2B2006F322920280CF82
:101BE5007F00B40700500B2407F582E43401F58328
:101BF500E0FF22286E756C6C2900D2011217B430F3
:101C050001F8C201780930D50108F60218632D5094
:101C15004349581217B42403B405004001E4901C4D
:101C250013931217E8743A1217E8D20375090402E0
:021C35001A395A
:1023170002137722EDA2E7D2E7F9EC3340F260F33C
:10232700B4FF08ED547F70E8021381F82481C2E0FE
:10233700C0E0F40428FAC313FCED92E7FD9000CA4D
:102347001216DCEEA2E7E9BA7F02C3133400940049
:10235700FA75F091A4E5F013F494FE8AF0A433E53E
:10236700F033248CD313FDE492E7FE7F007C3F75A6
:102377008302ECC0E0F8EDC0E0F9EEC0E0FAEFC090
:10238700E0FB8583F09000CA1216D085F083121106
:10239700FAD0E0FBD0E0FAD0E0F9D0E0F812100074
:1023A700ED6480FD30E7011CD583C7ED33CC33F8EE
:0C23B700D0E0A2E71328C313CC13FD22D2
:10134200E9D2E7C933E833F892D5EDD2E7CD33ECF1
:0713520033FC5002B2D5226A
:10135900EC30E7100FBF000C0EBE00080DBD0004F5
:101369000BEB6014A2D5EB13FCED92E7FD2274FFA1
:10137900FCFDFEFF22E480F8A2D574FF13FC7D80FA
:03138900E480EF0E
:10138C00F920E73624F950037907E4F42402FBE54D
:10139C0082158270021583DBF6E024FB501BE9609A
:1013AC0014E4F0E582158270021583E004F0B40AAF
:0D13BC0008E4F0D9EE7401F00A22C2D52237
:1013C900ED33EC3392D5FA602AB4FF33EDC2E77BF3
:1013D900FF60067A1379EEE4227A1379F720D504AF
:1013E9007A1379F2224E614E002B494E46002D495F
:1013F9004E4600E47A08F0A3DAFC7B00740722C0A9
:1014090083C082ECC0E0EDC0E0EEC0E0EFC0E0EAEE
:1014190075F010A4CAABF075F04DA42BFBE435F0C0
:10142900FCEA2410FAEB34C5FBEC34D9FCEDC2E735
:10143900FF75F056A4F42411C5F0F434C58FF0A457
:101449002AE5F03BE43CF020E7141214FED0E0FF5B
:10145900D0E0FED0E0FDD0E0FC1211FA8014F404D3
:101469001214FED0E0FFD0E0FED0E0FDD0E0FC1287
:1014790010F1D082D083E0FAEDD2E7CD33EC3324FA
:1014890082FBE4C3CF33CFCE33CECD33CD33DBF3C1
:101499007B0775F00A846004F0A31B0AE5F0F0A34A
:1014A9008FF0740AA4FFACF08EF0740AA42CFEAC81
:1014B900F050010C8DF0740AA42CFDE435F0F0A372
:0514C900DBDE740722C8
:1014CE003F8000004120000042C80000447A000026
:1014DE00461C400047C35000497424004B189680A8
:1014EE004CBEBC205A0E1BCA6753C21C749DC5AE9F
:1014FE00FB60065407601C232312152CEB54386036
:10150E00091215181215271210F1ECF8EDF9EEFA72
:10151E00EFCB22EB12152780F1543803241C9014C4
:10152E00CEFE93FC0EEE93FD0EEE930ECE93FF22A7
:10246F000225C0E493A3F8E493A34003F68001F29E
:10247F0008DFF48029E493A3F85407240CC8C3336E
:10248F00C4540F4420C8834004F456800146F6DF3D
:10249F00E4800B0102040810204080902692E47E15
:1024AF00019360BCA3FF543F30E509541FFEE49332
:1024BF00A360010ECF54C025E060A840B8E493A3F9
:1024CF00FAE493A3F8E493A3C8C582C8CAC583CA24
:1024DF00F0A3C8C582C8CAC583CADFE9DEE780BEDC
:0126C1000018
:10153E00E709F608DFFA8046E709F208DFFA803E8F
:10154E0088828C83E709F0A3DFFA8032E309F6087C
:10155E00DFFA8078E309F208DFFA807088828C83E4
:10156E00E309F0A3DFFA806489828A83E0A3F60898
:10157E00DFFA805889828A83E0A3F208DFFA804C72
:10158E0080D280FA80C680D4806980F28033801049
:10159E0080A680EA809A80A880DA80E280CA8033B2
:1015AE0089828A83ECFAE493A3C8C582C8CCC5832A
:1015BE00CCF0A3C8C582C8CCC583CCDFE9DEE780FA
:1015CE000D89828A83E493A3F608DFF9ECFAA9F079
:1015DE00EDFB2289828A83ECFAE0A3C8C582C8CCCF
:1015EE00C583CCF0A3C8C582C8CCC583CCDFEADEE8
:1015FE00E880DB89828A83E493A3F208DFF980CC4A
:10160E0088F0EF60010E4E60C388F0ED2402B40442
:10161E000050B9F582EB2402B4040050AF232345E9
:06162E00822390158E736B
:10163400BB010689828A83E0225002E722BBFE02B4
:09164400E32289828A83E49322E7
:10164D00BB010CE58229F582E5833AF583E0225052
:10165D0006E92582F8E622BBFE06E92582F8E2229C
:0D166D00E58229F582E5833AF583E49322B6
:10167A00BB010689828A83F0225002F722BBFE014F
:02168A00F32249
:10168C00C2D5EC30E709B2D5E4C39DFDE49CFCEE79
:10169C0030E715B2D5E4C39FFFE49EFE12175FC37B
:1016AC00E49DFDE49CFC800312175F30D507C3E476
:0616BC009FFFE49EFE22E8
:0E16C200C3E49FFFE49EFEE49DFDE49CFC2239
:0C16D000E0FCA3E0FDA3E0FEA3E0FF228D
:0C16DC00ECF0A3EDF0A3EEF0A3EFF02281
:1016E800A8828583F0D083D0821216FF1216FF12CB
:1016F80016FF1216FFE473E493A3C583C5F0C583F0
:10170800C8C582C8F0A3C583C5F0C583C8C582C84B
:0117180022AE
:10171900F8E0FBA3A3E0F925F0F0E5821582700259
:071729001583E0FA38F022FD
:09173000EBF0A3EAF0A3E9F022BA
:10173900D083D082F8E4937012740193700DA3A33F
:1017490093F8740193F5828883E473740293686053
:06175900EFA3A3A380DF53
:1026C200EFB40A07740D1226CD740A309811A89936
:1026D200B8130CC2983098FDA899C298B811F63078
:0726E20099FDC299F5992250
:10175F00BC000BBE0029EF8DF084FFADF022E4CC6E
:10176F00F875F008EF2FFFEE33FEEC33FCEE9DEC37
:10177F00984005FCEE9DFE0FD5F0E9E4CEFD22ED7D
:10178F00F8F5F0EE8420D21CFEADF075F008EF2FC7
:10179F00FFED33FD4007985006D5F0F222C398FDB8
:0517AF000FD5F0EA2255
:00000001FF
